:1000000055C06EC0C3C06CC06BC06AC069C068C058
:1000100067C066C065C064C0006B006765636473D9
:10002000696C6A68661060000055705F71110200AB
:1000300000002A1F1E120300002C2B2013050400B1
:1000400000352D2115140600002F2E23221607003F
:10005000003130241708090000312518190B0A0057
:1000600000323326271A0C00003428001B0D000034
:100070005D701D1C002900000000000056000F5795
:10008000004B0E47430000004F514C4849440100CB
:1000900072464D42414561003B360000005E373EEE
:1000A000003D3C00000000390000380011241FBE54
:1000B000CFEDCDBF10E0A0E6B0E0E8E3F3E003C091
:1000C000C89531960D92A236B107D1F710E0A2E69D
:1000D000B0E001C01D92A836B107E1F710D12BC1E5
:1000E0008FCFDF9AD7980895DF98D79A0895D89A36
:1000F000D0980895D898D09A0895F9DFF2DF479AFA
:100100008BB780628BBF8AB780628ABF089548E14F
:1001100050E080916500803E31F4809164008260FF
:10012000809364000895803F31F480916400816081
:1001300080936400089590916400292F332727FD50
:10014000309521FF07C0893628F0895680936500D5
:1001500046E950E080916500F52FE42FE80FF11D8E
:10016000C895802D882369F020FF06C08093660023
:1001700081E08093630005C08093670081E08093F5
:100180006200892F8C7F8093640008951F920F92E4
:100190000FB60F9211242F933F934F935F936F935A
:1001A0007F938F939F93AF93BF93EF93FF93CF99D9
:1001B00021C0C89B02C020E801C020E090916000EF
:1001C0009B3019F4222391F015C0923079F09130D0
:1001D00039F48BE080936000222361F098DF0AC03D
:1001E000809165008695822B80936500892F8150D0
:1001F00080936000FF91EF91BF91AF919F918F919C
:100200007F916F915F914F913F912F910F900FBE12
:100210000F901F90189580916200882319F480E058
:1002200090E0089581508093620080916700992743
:10023000089580916300882319F480E090E0089588
:1002400081508093630080916600992708958EBD48
:1002500088B7846088BF08B602FEFDCF089508B64F
:1002600002FEFDCF80E38EBD88B7846088BF08950D
:10027000EF92FF920F931F93CF93DF93182FC598A0
:1002800080E38EBD88B7846088BFE9DF01E0C0E00D
:10029000D0E0E12EFF24E7FCF094802F99278E21F7
:1002A0009F21892B11F0C59A01C0C598000FD7DF97
:1002B0002196C830D10589F7C59AD1DFDF91CF915A
:1002C0001F910F91FF90EF9008950F931F93CF937D
:1002D000DF93082F192F08C0C0E0D0E08EECB7DF05
:1002E0002196CA30D105D1F7015010408FEF0F3F52
:1002F000180791F7DF91CF911F910F9108958FEF1C
:1003000088BB8BBBBE9AC69ABD9AC59A10BE85E0C3
:100310008FBD88EE93E0D9DFF0DEC698789489DF50
:10032000882319F0C6988068A3DF75DF8823B9F3A6
:08033000C69A9EDFF4CFFFCF57
:020338000B00B8
:00000001FF
